{
  "contractName": "certificates",
  "abi": [
    {
      "constant": true,
      "inputs": [
        {
          "name": "",
          "type": "address"
        }
      ],
      "name": "users_mapping",
      "outputs": [
        {
          "name": "certificate_count",
          "type": "uint256"
        }
      ],
      "payable": false,
      "stateMutability": "view",
      "type": "function",
      "signature": "0x608452f2"
    },
    {
      "constant": false,
      "inputs": [
        {
          "name": "_certificate_data",
          "type": "string"
        },
        {
          "name": "addrs",
          "type": "address"
        }
      ],
      "name": "insert_certificate",
      "outputs": [],
      "payable": false,
      "stateMutability": "nonpayable",
      "type": "function",
      "signature": "0xaf384c78"
    },
    {
      "constant": true,
      "inputs": [
        {
          "name": "addrs",
          "type": "address"
        }
      ],
      "name": "get_certificate_self",
      "outputs": [
        {
          "name": "",
          "type": "string"
        }
      ],
      "payable": false,
      "stateMutability": "view",
      "type": "function",
      "signature": "0x36868204"
    },
    {
      "constant": true,
      "inputs": [
        {
          "name": "addrs",
          "type": "address"
        }
      ],
      "name": "get_count",
      "outputs": [
        {
          "name": "",
          "type": "uint256"
        }
      ],
      "payable": false,
      "stateMutability": "view",
      "type": "function",
      "signature": "0x3f09d078"
    },
    {
      "constant": true,
      "inputs": [
        {
          "name": "addrs",
          "type": "address"
        },
        {
          "name": "index",
          "type": "uint256"
        }
      ],
      "name": "index_certificate",
      "outputs": [
        {
          "name": "",
          "type": "string"
        }
      ],
      "payable": false,
      "stateMutability": "view",
      "type": "function",
      "signature": "0x8702ab0e"
    }
  ],
  "bytecode": "0x608060405234801561001057600080fd5b506109f5806100206000396000f3fe60806040526004361061006d576000357c0100000000000000000000000000000000000000000000000000000000900463ffffffff16806336868204146100725780633f09d0781461013c578063608452f2146101a15780638702ab0e14610206578063af384c78146102da575b600080fd5b34801561007e57600080fd5b506100c16004803603602081101561009557600080fd5b81019080803573ffffffffffffffffffffffffffffffffffffffff1690602001909291905050506103c2565b6040518080602001828103825283818151815260200191508051906020019080838360005b838110156101015780820151818401526020810190506100e6565b50505050905090810190601f16801561012e5780820380516001836020036101000a031916815260200191505b509250505060405180910390f35b34801561014857600080fd5b5061018b6004803603602081101561015f57600080fd5b81019080803573ffffffffffffffffffffffffffffffffffffffff169060200190929190505050610624565b6040518082815260200191505060405180910390f35b3480156101ad57600080fd5b506101f0600480360360208110156101c457600080fd5b81019080803573ffffffffffffffffffffffffffffffffffffffff169060200190929190505050610681565b6040518082815260200191505060405180910390f35b34801561021257600080fd5b5061025f6004803603604081101561022957600080fd5b81019080803573ffffffffffffffffffffffffffffffffffffffff1690602001909291908035906020019092919050505061069f565b6040518080602001828103825283818151815260200191508051906020019080838360005b8381101561029f578082015181840152602081019050610284565b50505050905090810190601f1680156102cc5780820380516001836020036101000a031916815260200191505b509250505060405180910390f35b3480156102e657600080fd5b506103c0600480360360408110156102fd57600080fd5b810190808035906020019064010000000081111561031a57600080fd5b82018360208201111561032c57600080fd5b8035906020019184600183028401116401000000008311171561034e57600080fd5b91908080601f016020809104026020016040519081016040528093929190818152602001838380828437600081840152601f19601f820116905080830192505050505050509192919290803573ffffffffffffffffffffffffffffffffffffffff169060200190929190505050610796565b005b606060008060003373ffffffffffffffffffffffffffffffffffffffff1673ffffffffffffffffffffffffffffffffffffffff168152602001908152602001600020600a015490506060600080905060008090505b83811115156105ca5760008060003373ffffffffffffffffffffffffffffffffffffffff1673ffffffffffffffffffffffffffffffffffffffff168152602001908152602001600020600b0182600a8110151561047057fe5b0160009054906101000a900473ffffffffffffffffffffffffffffffffffffffff1690508673ffffffffffffffffffffffffffffffffffffffff168173ffffffffffffffffffffffffffffffffffffffff1614156105bc576000803373ffffffffffffffffffffffffffffffffffffffff1673ffffffffffffffffffffffffffffffffffffffff16815260200190815260200160002060000182600a8110151561051657fe5b018054600181600116156101000203166002900480601f0160208091040260200160405190810160405280929190818152602001828054600181600116156101000203166002900480156105ab5780601f10610580576101008083540402835291602001916105ab565b820191906000526020600020905b81548152906001019060200180831161058e57829003601f168201915b5050505050935060019250506105ca565b508080600101915050610417565b50600015158115151415610618576040805190810160405280601481526020017f4e6f20636572746966696361746520666f756e64000000000000000000000000815250935050505061061f565b8193505050505b919050565b6000806000808473ffffffffffffffffffffffffffffffffffffffff1673ffffffffffffffffffffffffffffffffffffffff168152602001908152602001600020600a015490506000816001900391508190508092505050919050565b600060205280600052604060002060009150905080600a0154905081565b6060806000808573ffffffffffffffffffffffffffffffffffffffff1673ffffffffffffffffffffffffffffffffffffffff16815260200190815260200160002060000183600a811015156106f057fe5b018054600181600116156101000203166002900480601f0160208091040260200160405190810160405280929190818152602001828054600181600116156101000203166002900480156107855780601f1061075a57610100808354040283529160200191610785565b820191906000526020600020905b81548152906001019060200180831161076857829003601f168201915b505050505090508091505092915050565b60008060008373ffffffffffffffffffffffffffffffffffffffff1673ffffffffffffffffffffffffffffffffffffffff168152602001908152602001600020600a01549050826000808473ffffffffffffffffffffffffffffffffffffffff1673ffffffffffffffffffffffffffffffffffffffff16815260200190815260200160002060000182600a8110151561082b57fe5b01908051906020019061083f929190610924565b50336000808473ffffffffffffffffffffffffffffffffffffffff1673ffffffffffffffffffffffffffffffffffffffff168152602001908152602001600020600b0182600a8110151561088f57fe5b0160006101000a81548173ffffffffffffffffffffffffffffffffffffffff021916908373ffffffffffffffffffffffffffffffffffffffff1602179055506000808373ffffffffffffffffffffffffffffffffffffffff1673ffffffffffffffffffffffffffffffffffffffff168152602001908152602001600020600a0160008154809291906001019190505550505050565b828054600181600116156101000203166002900490600052602060002090601f016020900481019282601f1061096557805160ff1916838001178555610993565b82800160010185558215610993579182015b82811115610992578251825591602001919060010190610977565b5b5090506109a091906109a4565b5090565b6109c691905b808211156109c25760008160009055506001016109aa565b5090565b9056fea165627a7a72305820b5ad45d633d4856a8744ad860366cd619924b9e3e5547c3c5aa46312ceb20e360029",
  "source": "pragma solidity 0.5.0;\r\n\r\ncontract certificates {\r\n\tstruct user_data {\r\n\t\tstring[10] certificate;\r\n\t\tuint certificate_count;\r\n\t\taddress[10] sender;\r\n\t}\r\n\tmapping (address => user_data) public users_mapping;\r\n\r\n function  insert_certificate (string memory _certificate_data, address addrs) public {\r\n       uint count = users_mapping[addrs].certificate_count;\r\n       users_mapping[addrs].certificate[count] = _certificate_data;\r\n       users_mapping[addrs].sender[count] = msg.sender;\r\n        users_mapping[addrs].certificate_count ++;\r\n    }\r\n    \r\n    function get_certificate_self(address addrs) view public returns(string memory) {\r\n        uint count=users_mapping[msg.sender].certificate_count;\r\n        string  memory data;\r\n        bool val = false;\r\n        for (uint i=0; i<=count;i++) {\r\n            address _address= users_mapping[msg.sender].sender[i];\r\n            if (_address== addrs){\r\n                data=users_mapping[msg.sender].certificate[i];\r\n                val=true;\r\n                break;\r\n            }\r\n            \r\n        }\r\n        if(val== false){return \"No certificate found\";}\r\n        return data;\r\n    }\r\n    \r\n    function get_count(address addrs) view public returns (uint) {\r\n       uint count=users_mapping[addrs].certificate_count;\r\n       uint index = --count;\r\n       return index;\r\n    }\r\n    \r\n    function index_certificate(address addrs, uint index) view public returns(string memory){\r\n        string memory data = users_mapping[addrs].certificate[index];\r\n        return data;\r\n    }\r\n    \r\n}",
  "sourcePath": "D:/smart js/contracts/certificates.sol",
  "compiler": {
    "name": "solc",
    "version": "0.5.0+commit.1d4f565a.Emscripten.clang"
  },
  "schemaVersion": "3.0.1",
  "updatedAt": "2019-01-05T16:30:56.810Z",
  "devdoc": {
    "methods": {}
  },
  "userdoc": {
    "methods": {}
  }
}